:100000000C9434000C9451000C9451000C94510049
:100010000C9451000C9478010C9451000C945100F4
:100020000C9451000C94B9050C9451000C9451009F
:100030000C9451000C94D5020C9451000C94510076
:100040000C949C040C9451000C9451000C9451009D
:100050000C9451000C9451000C9451000C945100DC
:100060000C9451000C94510011241FBECFEFD4E02A
:10007000DEBFCDBF11E0A0E0B1E0E0E2FEE002C0F3
:1000800005900D92AE30B107D9F711E0AEE0B1E0C6
:1000900001C01D92A533B107E1F70E948E030C94B5
:1000A0000E070C940000662311F05B9A01C05B9868
:1000B0005C98249A239A229A219A29982A982B9814
:1000C0002C9887FD299A86FD2A9A85FD2B9A84FD16
:1000D0002C9A2D9A00C02D9829982A982B982C9804
:1000E00083FD299A82FD2A9A81FD2B9A80FD2C9A04
:1000F0002D9A00C02D982C9A2B9A2A9A299A089505
:10010000882311F05B9A01C05B985C9A249823982D
:10011000229821982D9A00C01C9B02C080E101C04A
:1001200080E01B9980621A998064199980682D98E3
:1001300000C02D9A00C01C9981601B9982601A9999
:100140008460199988602D98089580E00E9480004D
:1001500087FDFBCF84E090E00197F1F780E00E94FB
:10016000800008951F93182F0E94A500812F60E042
:100170000E9453001F9108951F93182F0E94A500FD
:10018000812F61E00E9453001F910895662311F4AE
:10019000805801C080540E94B20008950E94A500BA
:1001A00090E0089581E00E94B200089582E00E94EC
:1001B000B20008951F93182F0E94A5001A3049F429
:1001C000803410F080E001C080E480580E94B200CA
:1001D00004C0812F61E00E9453001F910895CF93C6
:1001E000DF93EC0102C00E94DA0089918823D9F7DD
:1001F000DF91CF910895CF93DF93EC0102C00E946D
:10020000DA00FE01219684918823C9F7DF91CF910E
:1002100008951F93182F539A549A259A249A239A33
:10022000229A219A80E09DE70197F1F72B9A2C9A68
:100230002D9A00C02D9880E097E20197F1F72D9A52
:1002400000C02D9880E890E0FC013197F1F72D9ADD
:1002500000C02D98FC013197F1F72C982D9A00C021
:100260002D980197F1F788E20E94B20088E00E9481
:10027000B2000E94D20086E00E94B200812F0E944C
:10028000B2001F91089590917C00907F90937C0024
:10029000882321F480917C00846003C080917C00DD
:1002A000856080937C0080ED97E00197F1F7809165
:1002B0007A00806480937A0080917A0086FDFCCF7A
:1002C0002091780030917900C9010895A0E0B0E054
:1002D000BC01CD0124EF31E040E050E00E949706E0
:1002E0002FEF33E040E050E00E94D606C9010895A8
:1002F0001F920F920FB60F9211242F933F934F939B
:100300005F936F937F938F939F93AF93EF93FF933D
:10031000809168008B7F80936800789481E090E002
:100320000197F1F710921C0148994DC083E080932A
:10033000160110921A0180910A01813009F435C02A
:100340005F9A80E49CE90197F1F75F982EC0809155
:100350001701909118018739910560F48091170178
:100360009091180101969093180180931701CB0189
:100370000197F1F780911701909118018639910545
:10038000D9F45F9AC9010197F1F75F9888EE93E07D
:10039000FA013197F1F70197D9F75F9AC9010197EF
:1003A000F1F75F98A093160107C060E177E220E4BF
:1003B0003CE948EC50E0A4E0489BC9CF10921801FA
:1003C000109217010BC04D9909C04E9902C082E0EE
:1003D00001C081E08093160110921A01809168009B
:1003E000846080936800FF91EF91AF919F918F910E
:1003F0007F916F915F914F913F912F910F900FBE21
:100400000F901F901895E6EBF0E08081806280836A
:1004100085E08093B100E0E7F0E080818160808337
:1004200008958AB186608AB98BB1897F8BB9579A52
:100430005F98209A289A8AB18F798AB9EDE6F0E020
:10044000808181628083E8E6F0E08081846080833F
:1004500083E085BD81E080936E00E1E8F0E080817B
:1004600081608083EFE6F0E0808181608083089581
:100470005F9A80E49CE90197F1F75F9808953C98B2
:100480003D98ECE7F0E080E48083808184608083A5
:10049000EAE7F0E087E080838081806880830895C8
:1004A000FF920F931F93382F262FF42E64E60E949D
:1004B000B606092F892F6AE00E94B606192F22235B
:1004C00059F0832F64E60E94B606882311F0805D00
:1004D00001C080E20E94DA00105D81E0F81639F078
:1004E000802F6AE00E94B606805D0E94DA00812FAC
:1004F0000E94DA001F910F91FF9008950E94C6009C
:100500008091200160E041E00E9450028AE30E9455
:10051000DA0080911F0160E042E00E9450020895DD
:100520000E94C60080910F0160E041E00E945002ED
:100530008AE30E94DA0080910E0160E042E00E94AE
:10054000500208950E94C6008091100161E042E0CF
:100550000E9450028FED0E94DA0008950E94C600AA
:100560008091110161E042E00E9450028FED0E94F3
:10057000DA0008951F93142F0E94C600112329F456
:10058000809112019091130104C080911401909107
:10059000150161E042E00E9450028FED0E94DA00F6
:1005A00083E40E94DA001F9108951F920F920FB604
:1005B0000F9211242F933F934F935F936F937F93E9
:1005C0008F939F93AF93BF93EF93FF938091190104
:1005D0008F5F8093190180911901853610F0109278
:1005E000190180E090E060E070E040E050E00E949F
:1005F000BA0280E090E061E070E041E050E00E94EB
:10060000BA0280910A01823069F480911901823323
:1006100048F086E060E00E94C60080E091E00E9421
:10062000EF0006C086E090E060E070E00E94A20269
:1006300080910A01833069F480911901823348F076
:1006400086E061E00E94C60080E091E00E94EF0039
:1006500006C086E090E061E070E00E94AE0280910A
:100660000C01813049F48AE061E00E94C60086E412
:100670000E94DA005A9808C08AE061E00E94C60031
:100680008EE40E94DA005A9A80910D01813049F47B
:100690008AE060E00E94C60086E40E94DA00599871
:1006A00008C08AE060E00E94C6008EE40E94DA0082
:1006B000599A80910A01843069F48091190182333A
:1006C00048F08CE061E00E94C60084E091E00E9466
:1006D000EF0006C08CE090E061E070E00E949002C4
:1006E0008CE090E060E070E00E947E0280911C014E
:1006F000882311F4289A01C02898FF91EF91BF91A7
:10070000AF919F918F917F916F915F914F913F91A9
:100710002F910F900FBE0F901F9018951F93CF939E
:10072000DF938CE00E94090188E893E128EC30E037
:10073000F9013197F1F70197D9F78091B6008062FE
:100740008093B60085E08093B10080917000816055
:10075000809370000E9411020E943F020E94D2000A
:1007600078945F9A80E49CE90197F1F75F9888EEAE
:1007700093E028EC30E0F9013197F1F70197D9F7D0
:100780005F9A80E49CE90197F1F75F9880E090E040
:1007900025E1FC01EF5DFE4F2083FC01E55DFE4F8E
:1007A000208301968A309105A1F780E090E00E94B5
:1007B000F806182F81E090E00E94F806181719F447
:1007C000109310010AC080E090E060E00E940007F2
:1007D00081E090E060E00E94000782E090E00E94EB
:1007E000F806182F83E090E00E94F806181719F415
:1007F000109311010AC082E090E060E00E940007BF
:1008000083E090E060E00E94000784E090E00E94B6
:10081000F806182F85E090E00E94F806181719F4E2
:1008200010930E010AC084E090E060E00E9400078F
:1008300085E090E060E00E94000786E090E00E9482
:10084000F806182F87E090E00E94F806181751F478
:1008500010930F0140E050E0C0E0D0E020E030E035
:1008600011E020C086E090E060E00E94000787E091
:1008700090E060E00E940007EDCFF901EF5DFE4FD0
:100880008081480F511DF901E55DFE4F8081C80F41
:10089000D11D2F5F3F4F06C040E050E0C0E0D0E0E8
:1008A00020E030E02A30310540F3CA016AE070E010
:1008B0000E94C2067093130160931201CE016AE098
:1008C00070E00E94C206709315016093140140917C
:1008D0000B01413089F42091140130911501809170
:1008E000110190E02817390728F010920C0110929E
:1008F0000B0102C040930C012091120130911301B1
:100900008091100190E08217930718F010920D016A
:1009100002C010930D0190911F0180910E01981754
:1009200009F0BACF9091200180910F01981709F03A
:10093000B3CF10930B01B0CF1F920F920FB60F924F
:1009400011242F933F934F935F936F937F938F93D4
:100950009F93AF93BF93EF93FF93809116018430E1
:1009600009F03FC080910A01813021F482E0809338
:100970000A0135C06091100180E090E00E940007FC
:100980006091100181E090E00E94000760911101E8
:1009900082E090E00E9400076091110183E090E006
:1009A0000E94000760910E0184E090E00E94000721
:1009B00060910E0185E090E00E94000760910F01B8
:1009C00086E090E00E94000760910F0187E090E0D0
:1009D0000E94000781E080930A0180930B0110922E
:1009E000160180911601833091F480910A018130C3
:1009F00061F080910A018F5F80930A0180910A0162
:100A0000853019F482E080930A01109216018091DA
:100A10000A01823011F580911601813041F48091F4
:100A200010018C3890F4809110018F5F0BC0809181
:100A30001601823081F480911001882331F0809179
:100A4000100181508093100106C05F9A80E49CE9F8
:100A50000197F1F75F981092160180910A01833097
:100A600011F580911601813041F4809111018C388B
:100A700090F4809111018F5F0BC08091160182303C
:100A800081F480911101882331F08091110181500E
:100A90008093110106C05F9A80E49CE90197F1F709
:100AA0005F981092160180910A01843009F050C0BD
:100AB000809116018130F1F480910E018B3341F465
:100AC00010920E0180910F018F5F80930F013EC045
:100AD00080910E018F5F80930E0180910F0183360C
:100AE000A9F580910E018B3389F510920F011092B8
:100AF0000E012CC080911601823021F580910E01EB
:100B0000882359F480910F01882339F080910F01D7
:100B1000815080930F018BE312C080910E018823D6
:100B200059F480910F01882339F45F9A80E49CE99D
:100B30000197F1F75F980AC080910E018150809370
:100B40000E0104C080911601833011F41092160139
:100B5000FF91EF91BF91AF919F918F917F916F9195
:100B60005F914F913F912F910F900FBE0F901F906B
:100B700018951F920F920FB60F9211242F933F9347
:100B80004F935F936F937F938F939F93AF93BF9395
:100B9000CF93DF93EF93FF9380911D01C82FD0E097
:100BA00080E00E9443010E946601CF5DDE4F888392
:100BB00080911D01C82FD0E081E00E9443010E9476
:100BC0006601C55DDE4F888380911D018F5F809334
:100BD0001D0180911D01893011F410921D01809139
:100BE0001C01882389F490910A01913069F4809165
:100BF0001B018F5F80931B0180911B01883721F4BB
:100C000090931C0110921B0180910A01813009F41C
:100C100041C080911A018F5F80931A0180911A015F
:100C20008A30D1F56091100180E090E00E940007C9
:100C30006091100181E090E00E9400076091110135
:100C400082E090E00E9400076091110183E090E053
:100C50000E94000760910E0184E090E00E9400076E
:100C600060910E0185E090E00E94000760910F0105
:100C700086E090E00E94000760910F0187E090E01D
:100C80000E94000710921A0181E080930A0180936C
:100C90000B0102C010921A0180910B01882331F4DC
:100CA00080911E018F5F80931E0106C010921E016D
:100CB00010921F011092200180911E018C3338F098
:100CC00010921E0180911F018F5F80931F01809100
:100CD0001F018C3338F010921F01809120018F5F2B
:100CE0008093200180912001833671F480911F014F
:100CF0008C3351F480911E01882331F4109220012D
:100D000010921F0110921E01FF91EF91DF91CF9180
:100D1000BF91AF919F918F917F916F915F914F9113
:100D20003F912F910F900FBE0F901F901895629FCB
:100D3000D001739FF001829FE00DF11D649FE00DD3
:100D4000F11D929FF00D839FF00D749FF00D659F34
:100D5000F00D9927729FB00DE11DF91F639FB00D33
:100D6000E11DF91FBD01CF0111240895991B79E000
:100D700004C0991F961708F0961B881F7A95C9F72B
:100D800080950895AA1BBB1B51E107C0AA1FBB1F7A
:100D9000A617B70710F0A61BB70B881F991F5A9507
:100DA000A9F780959095BC01CD010895A1E21A2E76
:100DB000AA1BBB1BFD010DC0AA1FBB1FEE1FFF1FFF
:100DC000A217B307E407F50720F0A21BB30BE40B4F
:100DD000F50B661F771F881F991F1A9469F7609596
:100DE0007095809590959B01AC01BD01CF01089550
:100DF000F999FECF92BD81BDF89A992780B50895E3
:100E0000262FF999FECF1FBA92BD81BD20BD0FB626
:100E1000F894FA9AF99A0FBE01960895F894FFCFC4
:0E0E20002020200020202020200001010101C0
:00000001FF
